:100000000C942A000C9447000C9447000C94470071
:100010000C9447000C9447000C9447000C94470044
:100020000C9447000C94F7120C9447000C942B127C
:100030000C9447000C9447000C9447000C94470024
:100040000C9447000C9447000C9447000C94470014
:100050000C94470011241FBECFE5D8E0DEBFCDBF12
:1000600010E0A0E6B0E0ECEFF0E302C005900D92E6
:10007000A438B107D9F710E0A4E8B0E001C01D92A0
:10008000A23AB107E1F70E9424130C947C180C9457
:100090000000EF92FF920F931F937B018C0120E0F1
:1000A00030E040E05FE40E94F50388238CF0C80153
:1000B000B70120E030E040E05FE40E94C1010E940F
:1000C00055049B01AC01205030404040504806C0D0
:1000D000C801B7010E9455049B01AC01B901CA01D6
:1000E0001F910F91FF90EF900895A0E0B0E0EBE733
:1000F000F0E00C944518DC012B01FA019C91923040
:1001000008F439C1EB018881823008F433C194309E
:1001100069F4843009F02FC111969C91119789815F
:10012000981709F428C1ABE7B0E025C1843009F481
:1001300021C18230A9F4923009F01DC19A01AD01AC
:1001400088E0EA010990AE01E90109929E0181501F
:10015000C1F7E201898111969C918923818308C1AD
:10016000923009F407C112962D903C901397EB0141
:100170008A819B811496AD90BD90CD90DC901797AD
:10018000EC80FD800E811F819101281B390BB90184
:1001900037FF04C066277727621B730B6032710537
:1001A0000CF061C0121613066CF537014801062EDB
:1001B00004C096948794779467940A94D2F721E0C8
:1001C00030E040E050E004C0220F331F441F551FB1
:1001D0006A95D2F721503040404050402E213F21B7
:1001E00040235123211531054105510521F021E01E
:1001F00030E040E050E079018A01E628F72808293C
:1002000019293CC0232BD1F1260E371E350146019A
:10021000062E04C096948794779467940A94D2F734
:1002200021E030E040E050E004C0220F331F441FC3
:10023000551F6A95D2F721503040404050402A2146
:100240003B214C215D21211531054105510521F04E
:1002500021E030E040E050E059016A01A628B728CB
:10026000C828D9280BC0821593052CF01C01AA249C
:10027000BB24650103C0EE24FF24870111969C91E5
:10028000D20111968C91981709F445C0992339F041
:10029000A80197012A193B094C095D0906C0A6016E
:1002A00095012E193F09400B510B57FD08C01182D3
:1002B0003382228224833583468357831DC081E0A5
:1002C00081833382228288279927DC01821B930B4A
:1002D000A40BB50B84839583A683B7830DC0220F2F
:1002E000331F441F551F24833583468357838281E0
:1002F000938101979383828324813581468157813D
:10030000DA01C9010197A109B1098F5F9F4FAF4F72
:10031000BF4328F30BC0918333822282EA0CFB1C7B
:100320000C1D1D1DE482F5820683178383E0808304
:10033000248135814681578157FF1AC0C901AA27F8
:1003400097FDA095BA2F81709070A070B0705695EF
:10035000479537952795822B932BA42BB52B848318
:100360009583A683B7838281938101969383828349
:10037000DF0101C0D201CD01CDB7DEB7E2E10C94BF
:100380006118A0E2B0E0E7ECF1E00C945118698349
:100390007A838B839C832D833E834F835887E9E048
:1003A000EE2EF12CEC0EFD1ECE010196B7010E943F
:1003B0007E058E010F5E1F4FCE010596B8010E948B
:1003C0007E058A8991E089278A8BC701B801AE0131
:1003D000475E5F4F0E9475000E94A904A096E6E068
:1003E0000C946D18A0E2B0E0E8EFF1E00C94511825
:1003F00069837A838B839C832D833E834F835887C5
:10040000F9E0EF2EF12CEC0EFD1ECE010196B701A6
:100410000E947E058E010F5E1F4FCE010596B8012A
:100420000E947E05C701B801AE01475E5F4F0E9482
:1004300075000E94A904A096E6E00C946D18A0E255
:10044000B0E0E5E2F2E00C94451869837A838B838F
:100450009C832D833E834F835887CE010196BE0136
:10046000675F7F4F0E947E05CE010596BE016F5EDD
:100470007F4F0E947E059985923088F0898982306D
:10048000C8F0943019F4823051F404C0843029F457
:10049000923081F48BE790E0C6C0923049F420E0BE
:1004A0009A858A89981321E02A87CE010996BBC0D4
:1004B000823049F420E09A858A89981321E02A8BBA
:1004C000CE014196B0C02D843E844F8458886D88FB
:1004D0007E888F88988CEE24FF248701AA24BB2471
:1004E000650140E050E060E070E0E0E0F0E0C10174
:1004F00081709070892BE9F0E60CF71C081D191D1E
:100500009A01AB012A0D3B1D4C1D5D1D80E090E062
:10051000A0E0B0E0E614F7040805190520F481E036
:1005200090E0A0E0B0E0BA01A901480F591F6A1F8E
:100530007B1FAA0CBB1CCC1CDD1C97FE08C081E0F5
:1005400090E0A0E0B0E0A82AB92ACA2ADB2A3196B6
:10055000E032F10549F0660C771C881C991C569412
:10056000479437942794C3CFFA85EA892B893C892D
:100570008B859C85280F391F2E5F3F4F17C0CA01FE
:1005800081709070892B61F016950795F794E79428
:1005900080E090E0A0E0B0E8E82AF92A0A2B1B2BC3
:1005A00076956795579547952F5F3F4F77FDE7CF36
:1005B0000CC0440F551F661F771F17FD4160EE0CDE
:1005C000FF1C001F111F21503040403090E05907A0
:1005D00090E0690790E4790760F32B8F3C8FDB0193
:1005E000CA018F779070A070B07080349105A1051A
:1005F000B10561F447FD0AC0E114F10401051105DC
:1006000029F0405C5F4F6F4F7F4F40781A8EFE1786
:1006100011F081E08A8F4D8F5E8F6F8F78A383E01A
:10062000898FCE0149960E94A904A096E2E10C941C
:100630006118A8E1B0E0EFE1F3E00C944D18698394
:100640007A838B839C832D833E834F835887B9E0C5
:10065000EB2EF12CEC0EFD1ECE010196B7010E948F
:100660007E058E010F5E1F4FCE010596B8010E94D8
:100670007E052985223008F47EC03989323010F495
:10068000B8017CC08A859A8989278A87243011F02D
:10069000223031F4231709F06EC06BE770E06EC0B2
:1006A000343039F41D861E861F86188A1C861B86E8
:1006B00004C0323021F484E08987B7015FC02B8504
:1006C0003C858B899C89281B390B3C872B87ED84C3
:1006D000FE840F851889AD88BE88CF88D88CEA142F
:1006E000FB040C051D0540F4EE0CFF1C001F111F40
:1006F000215030403C872B8720E030E040E050E044
:1007000080E090E0A0E0B0E460E070E0EA14FB0478
:100710000C051D0540F0282B392B4A2B5B2BEA18C2
:10072000FB080C091D09B695A79597958795EE0CC2
:10073000FF1C001F111F6F5F7F4F6F31710531F775
:10074000DA01C9018F779070A070B0708034910584
:10075000A105B10561F427FD0AC0E114F10401050A
:10076000110529F0205C3F4F4F4F5F4F20782D87B8
:100770003E874F87588BBE01675F7F4FCB010E943A
:10078000A9046896EAE00C946918A8E1B0E0EBECE3
:10079000F3E00C94511869837A838B839C832D83B7
:1007A0003E834F83588789E0E82EF12CEC0EFD1E26
:1007B000CE010196B7010E947E058E010F5E1F4F8C
:1007C000CE010596B8010E947E058985823040F0F1
:1007D0008989823028F0C701B8010E94F60501C05E
:1007E0008FEF6896E6E00C946D18A8E1B0E0EBEFAF
:1007F000F3E00C94511869837A838B839C832D8357
:100800003E834F83588789E0E82EF12CEC0EFD1EC5
:10081000CE010196B7010E947E058E010F5E1F4F2B
:10082000CE010596B8010E947E058985823040F090
:100830008989823028F0C701B8010E94F60501C0FD
:100840008FEF6896E6E00C946D18A8E1B0E0EBE25B
:10085000F4E00C94511869837A838B839C832D83F5
:100860003E834F83588789E0E82EF12CEC0EFD1E65
:10087000CE010196B7010E947E058E010F5E1F4FCB
:10088000CE010596B8010E947E058985823040F030
:100890008989823028F0C701B8010E94F60501C09D
:1008A00081E06896E6E00C946D18ACE0B0E0EBE512
:1008B000F4E00C94551869837A838B839C83CE0172
:1008C0000196BE016B5F7F4F0E947E058D81823055
:1008D00061F1823050F1843021F48E81882351F10E
:1008E0002EC02F81388537FD20C06E812F31310514
:1008F0001CF06623F9F023C08EE190E0821B930B7D
:1009000029853A854B855C8504C056954795379572
:1009100027958A95D2F76623B1F05095409530958A
:1009200021953F4F4F4F5F4F0EC020E030E040E039
:1009300050E009C02FEF3FEF4FEF5FE704C020E02A
:1009400030E040E050E8B901CA012C96E2E00C9496
:100950007118DF92EF92FF920F931F93FC01E480D6
:10096000F58006811781D1808081823048F480E053
:1009700090E0A0E1B0E0E82AF92A0A2B1B2BA5C0E1
:10098000843009F49FC0823021F4EE24FF248701D3
:1009900005C0E114F1040105110519F4E0E0F0E0EF
:1009A00096C0628173819FEF623879070CF05BC05B
:1009B00022E83FEF261B370B2A3131052CF020E0CF
:1009C00030E040E050E02AC0B801A701022E04C088
:1009D00076956795579547950A94D2F781E090E010
:1009E000A0E0B0E004C0880F991FAA1FBB1F2A9582
:1009F000D2F70197A109B1098E219F21A023B1232C
:100A00000097A105B10521F081E090E0A0E0B0E001
:100A10009A01AB01282B392B4A2B5B2BDA01C90138
:100A20008F779070A070B07080349105A105B105EA
:100A300039F427FF09C0205C3F4F4F4F5F4F04C080
:100A4000215C3F4F4F4F5F4FE0E0F0E02030A0E0EF
:100A50003A07A0E04A07A0E45A0710F0E1E0F0E00E
:100A600079018A0127C06038710564F5FB01E158FE
:100A7000FF4FD801C7018F779070A070B07080349D
:100A80009105A105B10539F4E7FE0DC080E490E0C1
:100A9000A0E0B0E004C08FE390E0A0E0B0E0E80E9A
:100AA000F91E0A1F1B1F17FF05C016950795F7941F
:100AB000E794319687E016950795F794E7948A9521
:100AC000D1F705C0EE24FF248701EFEFF0E06E2F91
:100AD000679566276795902F9F77D794DD24D794E5
:100AE0008E2F8695492F462B582F5D29B701CA01B5
:100AF0001F910F91FF90EF90DF900895FC01DB01B3
:100B0000408151812281622F6F7770E0221F22275E
:100B1000221F9381892F880F822B282F30E0991F65
:100B20009927991F11969C93119721153105A9F5C5
:100B3000411551056105710511F482E037C082E865
:100B40009FEF13969C938E9312979A01AB0167E0E7
:100B5000220F331F441F551F6A95D1F783E08C93F2
:100B60000DC0220F331F441F551F12968D919C916B
:100B70001397019713969C938E931297203080E0E1
:100B8000380780E0480780E4580758F314962D93FF
:100B90003D934D935C93179708952F3F310579F45A
:100BA000411551056105710519F484E08C93089590
:100BB00064FF03C081E08C9312C01C9210C02F57B9
:100BC000304013963C932E93129783E08C9387E0EA
:100BD000440F551F661F771F8A95D1F770641496CE
:100BE0004D935D936D937C93179708951F93DC014C
:100BF000FB019C91923008F447C08081823008F458
:100C000043C0943051F411961C91843099F5818140
:100C1000682F70E0611B71093FC0843021F0923071
:100C200031F48230B9F18181882389F12DC0119688
:100C30001C9111978230F1F081811817D9F4129626
:100C40002D913C911397828193818217930794F0A1
:100C500028173907BCF014968D919D910D90BC9189
:100C6000A02D2481358146815781281739074A07ED
:100C70005B0718F4112341F00AC082179307A407F9
:100C8000B50740F4112319F061E070E005C06FEF83
:100C90007FEF02C060E070E0CB011F910895DF9309
:100CA000CF9300D000D0CDB7DEB789836A83898126
:100CB000282F30E03C832B838B819C8181309105F0
:100CC000D1F02B813C81223031052CF48B819C8129
:100CD000009761F01EC02B813C812230310581F0EC
:100CE0008B819C818330910581F013C0EAE3F0E0B1
:100CF0008A8180830EC0E7E3F0E08A81808309C0A7
:100D0000E4E3F0E08A81808304C0E1E3F0E08A81DB
:100D100080830F900F900F900F90CF91DF910895E7
:100D2000DF93CF9300D000D00F92CDB7DEB7898389
:100D30006A834B838A81883008F0E0C08981282F3C
:100D400030E03D832C838C819D818130910509F4B5
:100D500047C02C813D81223031052CF48C819D814E
:100D6000009771F0CBC02C813D812230310509F410
:100D700067C08C819D818330910509F491C0BEC00C
:100D80008B818130A1F4AAE3B0E0EAE3F0E0808156
:100D9000482F8A81282F30E081E090E0022E02C0A7
:100DA000880F991F0A94E2F7842B8C93A7C08B813C
:100DB000882309F0A3C0AAE3B0E0EAE3F0E0808171
:100DC000482F8A81282F30E081E090E0022E02C077
:100DD000880F991F0A94E2F7809584238C938EC024
:100DE0008B818130A1F4A7E3B0E0E7E3F0E08081FC
:100DF000482F8A81282F30E081E090E0022E02C047
:100E0000880F991F0A94E2F7842B8C9377C08B810B
:100E1000882309F073C0A7E3B0E0E7E3F0E0808146
:100E2000482F8A81282F30E081E090E0022E02C016
:100E3000880F991F0A94E2F7809584238C935EC0F3
:100E40008B818130A1F4A4E3B0E0E4E3F0E08081A1
:100E5000482F8A81282F30E081E090E0022E02C0E6
:100E6000880F991F0A94E2F7842B8C9347C08B81DB
:100E7000882309F043C0A4E3B0E0E4E3F0E080811C
:100E8000482F8A81282F30E081E090E0022E02C0B6
:100E9000880F991F0A94E2F7809584238C932EC0C3
:100EA0008B818130A1F4A1E3B0E0E1E3F0E0808147
:100EB000482F8A81282F30E081E090E0022E02C086
:100EC000880F991F0A94E2F7842B8C9317C08B81AB
:100ED0008823A1F4A1E3B0E0E1E3F0E08081482FB2
:100EE0008A81282F30E081E090E0022E02C0880F36
:100EF000991F0A94E2F7809584238C930F900F90AA
:100F00000F900F900F90CF91DF910895DF93CF93C3
:100F100000D000D00F92CDB7DEB789836A834B83B0
:100F20008A81883008F0E0C08981282F30E03D8335
:100F30002C838C819D818130910509F447C02C81DF
:100F40003D81223031052CF48C819D81009771F018
:100F5000CBC02C813D812230310509F467C08C81E2
:100F60009D818330910509F491C0BEC08B81813091
:100F7000A1F4ABE3B0E0EBE3F0E08081482F8A819D
:100F8000282F30E081E090E0022E02C0880F991FE8
:100F90000A94E2F7842B8C93A7C08B81882309F0F5
:100FA000A3C0ABE3B0E0EBE3F0E08081482F8A819F
:100FB000282F30E081E090E0022E02C0880F991FB8
:100FC0000A94E2F7809584238C938EC08B818130C4
:100FD000A1F4A8E3B0E0E8E3F0E08081482F8A8143
:100FE000282F30E081E090E0022E02C0880F991F88
:100FF0000A94E2F7842B8C9377C08B81882309F0C5
:1010000073C0A8E3B0E0E8E3F0E08081482F8A8174
:10101000282F30E081E090E0022E02C0880F991F57
:101020000A94E2F7809584238C935EC08B81813093
:10103000A1F4A5E3B0E0E5E3F0E08081482F8A81E8
:10104000282F30E081E090E0022E02C0880F991F27
:101050000A94E2F7842B8C9347C08B81882309F094
:1010600043C0A5E3B0E0E5E3F0E08081482F8A814A
:10107000282F30E081E090E0022E02C0880F991FF7
:101080000A94E2F7809584238C932EC08B81813063
:10109000A1F4A2E3B0E0E2E3F0E08081482F8A818E
:1010A000282F30E081E090E0022E02C0880F991FC7
:1010B0000A94E2F7842B8C9317C08B818823A1F4C8
:1010C000A2E3B0E0E2E3F0E08081482F8A81282F9C
:1010D00030E081E090E0022E02C0880F991F0A9450
:1010E000E2F7809584238C930F900F900F900F90D0
:1010F0000F90CF91DF910895DF93CF9300D000D070
:101100000F92CDB7DEB78A836B838B81883008F06E
:1011100067C08A81282F30E03D832C834C815D811C
:101120004130510541F18C819D818230910534F42B
:101130002C813D812115310561F052C04C815D81CA
:101140004230510551F18C819D8183309105B9F177
:1011500047C0E9E3F0E08081282F30E08B81882FC1
:1011600090E0A90102C0559547958A95E2F7CA011A
:101170008170898335C0E6E3F0E08081282F30E07C
:101180008B81882F90E0A90102C0559547958A95DB
:10119000E2F7CA018170898323C0E3E3F0E0808134
:1011A000282F30E08B81882F90E0A90102C055954F
:1011B00047958A95E2F7CA018170898311C0E0E3FF
:1011C000F0E08081282F30E08B81882F90E0A9010A
:1011D00002C0559547958A95E2F7CA0181708983C7
:1011E00089810F900F900F900F900F90CF91DF910A
:1011F0000895DF93CF9300D000D0CDB7DEB78983B9
:101200006A838A81883008F06EC08981282F30E097
:101210003C832B838B819C818130910549F12B810B
:101220003C81223031052CF48B819C81009761F048
:101230005AC02B813C812230310571F18B819C8118
:1012400083309105E9F14FC0ABE3B0E0EBE3F0E0B0
:101250008081482F8A81282F30E081E090E0022EA3
:1012600002C0880F991F0A94E2F784278C933BC031
:10127000A8E3B0E0E8E3F0E08081482F8A81282FDE
:1012800030E081E090E0022E02C0880F991F0A949E
:10129000E2F784278C9327C0A5E3B0E0E5E3F0E014
:1012A0008081482F8A81282F30E081E090E0022E53
:1012B00002C0880F991F0A94E2F784278C9313C009
:1012C000A2E3B0E0E2E3F0E08081482F8A81282F9A
:1012D00030E081E090E0022E02C0880F991F0A944E
:1012E000E2F784278C930F900F900F900F90CF917F
:1012F000DF910895DF93CF93CDB7DEB7AFE5B0E0D0
:10130000EFE5F0E0808180688C93CF91DF910895C4
:10131000DF93CF93CDB7DEB7AFE5B0E0EFE5F0E018
:1013200080818F778C93CF91DF9108950F931F93D6
:10133000DF93CF93CDB7DEB7C455D0400FB6F89446
:10134000DEBF0FBECDBF80E06FEF0E944F0681E091
:1013500062E041E00E94900681E063E041E00E948B
:10136000900681E064E041E00E949006FE01EF5AA1
:10137000FF4F80E090E0A0EFB1E480839183A283EF
:10138000B3838E01035B1F4FFE01EF5AFF4F608155
:1013900071818281938120E030E04AE755E40E9428
:1013A0001F02DC01CB01F80180839183A283B38308
:1013B000FE01E35BFF4F608171818281938120E0B8
:1013C00030E040E85FE30E942504882344F4FE01F6
:1013D000E55BFF4F81E090E09183808364C0FE0174
:1013E000E35BFF4F608171818281938120E03FEF59
:1013F0004FE757E40E94C50318160CF043C0FE01E6
:10140000EF5AFF4F608171818281938120E030E04B
:1014100040E251E40E941F02DC01CB018E01055B1A
:101420001F4FBC01CD010E944900DC01CB01F80136
:10143000918380831FC0FE01E75BFF4F80E991E04D
:1014400091838083FE01E75BFF4F8081918101974B
:10145000F1F7FE01E75BFF4F91838083DE01A55B1F
:10146000BF4FFE01E55BFF4F80819181019711968F
:101470009C938E93FE01E55BFF4F808191810097E5
:10148000D1F627C08E01055B1F4FFE01E35BFF4FC6
:1014900060817181828193810E944900DC01CB01CE
:1014A000F80191838083DE01A95BBF4FFE01E55BFC
:1014B000FF4F808191818D939C93FE01E95BFF4FEB
:1014C000808191810197F1F7FE01E95BFF4F9183E4
:1014D000808382E00E94D40C88E20E94D40CFE013A
:1014E000ED5BFF4F80E090E0A0E4B0E48083918367
:1014F000A283B3838E01015C1F4FFE01ED5BFF4FA2
:10150000608171818281938120E030E04AE755E477
:101510000E941F02DC01CB01F80180839183A2832A
:10152000B383FE01FF96608171818281938120E007
:1015300030E040E85FE30E94250488232CF481E03A
:1015400090E09EAF8DAF46C0FE01FF966081718135
:101550008281938120E03FEF4FE757E40E94C5036B
:10156000181664F5FE01ED5BFF4F60817181828189
:10157000938120E030E040E251E40E941F02DC0150
:10158000CB01BC01CD010E944900DC01CB019EAF23
:101590008DAF0FC080E991E09CAF8BAF8BAD9CAD60
:1015A0000197F1F79CAF8BAF8DAD9EAD01979EAFCC
:1015B0008DAF8DAD9EAD009769F716C0FE01FF9609
:1015C00060817181828193810E944900DC01CB019D
:1015D0009EAF8DAF8DAD9EAD9AAF89AF89AD9AADFF
:1015E0000197F1F79AAF89AF8CE00E94D40C80E0AC
:1015F00090E0A0E4B0E48DAB9EABAFABB8AF6DA90B
:101600007EA98FA998AD20E030E04AE755E40E941A
:101610001F02DC01CB0189AB9AABABABBCAB69A9B8
:101620007AA98BA99CA920E030E040E85FE30E9402
:10163000250488232CF481E090E098AB8FA73FC06D
:1016400069A97AA98BA99CA920E03FEF4FE757E44D
:101650000E94C50318164CF56DA97EA98FA998ADF7
:1016600020E030E040E251E40E941F02DC01CB01A7
:10167000BC01CD010E944900DC01CB0198AB8FA7D2
:101680000FC080E991E09EA78DA78DA59EA501972B
:10169000F1F79EA78DA78FA598A9019798AB8FA763
:1016A0008FA598A9009769F714C069A97AA98BA991
:1016B0009CA90E944900DC01CB0198AB8FA78FA5A4
:1016C00098A99CA78BA78BA59CA50197F1F79CA730
:1016D0008BA781E00E94D40C80E090E0A0E4B0E40D
:1016E0008FA398A7A9A7BAA76FA178A589A59AA53E
:1016F00020E030E04AE755E40E941F02DC01CB0104
:101700008BA39CA3ADA3BEA36BA17CA18DA19EA125
:1017100020E030E040E85FE30E94250488232CF4B9
:1017200081E090E09AA389A33FC06BA17CA18DA129
:101730009EA120E03FEF4FE757E40E94C503181633
:101740004CF56FA178A589A59AA520E030E040E28C
:1017500051E40E941F02DC01CB01BC01CD010E94BB
:101760004900DC01CB019AA389A30FC080E991E075
:1017700098A38F8F8F8D98A10197F1F798A38F8FE2
:1017800089A19AA101979AA389A389A19AA10097F7
:1017900069F714C06BA17CA18DA19EA10E94490094
:1017A000DC01CB019AA389A389A19AA19E8F8D8F79
:1017B0008D8D9E8D0197F1F79E8F8D8F86E00E9413
:1017C000D40C80E090E0A0E4B0E4898F9A8FAB8FD6
:1017D000BC8F698D7A8D8B8D9C8D20E030E04AE73F
:1017E00055E40E941F02DC01CB018D8B9E8BAF8BD9
:1017F000B88F6D897E898F89988D20E030E040E830
:101800005FE30E94250488232CF481E090E09C8B08
:101810008B8B3FC06D897E898F89988D20E03FEF4B
:101820004FE757E40E94C50318164CF5698D7A8D71
:101830008B8D9C8D20E030E040E251E40E941F023D
:10184000DC01CB01BC01CD010E944900DC01CB01D0
:101850009C8B8B8B0FC080E991E09A8B898B898957
:101860009A890197F1F79A8B898B8B899C890197CB
:101870009C8B8B8B8B899C89009769F714C06D8931
:101880007E898F89988D0E944900DC01CB019C8B59
:101890008B8B8B899C89988B8F878F8598890197F3
:1018A000F1F7988B8F8782E00E94D40C80E090E063
:1018B000A0E4B0E48B879C87AD87BE876B857C8571
:1018C0008D859E8520E030E04AE755E40E941F02A6
:1018D000DC01CB018F839887A987BA876F817885D0
:1018E00089859A8520E030E040E85FE30E94250486
:1018F00088232CF481E090E09E838D833FC06F812C
:10190000788589859A8520E03FEF4FE757E40E946C
:10191000C50318164CF56B857C858D859E8520E06A
:1019200030E040E251E40E941F02DC01CB01BC0127
:10193000CD010E944900DC01CB019E838D830FC045
:1019400080E991E09C838B838B819C810197F1F7E7
:101950009C838B838D819E8101979E838D838D8156
:101960009E81009769F714C06F81788589859A8573
:101970000E944900DC01CB019E838D838D819E8175
:101980009A83898389819A810197F1F79A83898360
:10199000CC5ADF4F0FB6F894DEBF0FBECDBFCF914C
:1019A000DF911F910F910895DF93CF93CDB7DEB7ED
:1019B000E9970FB6F894DEBF0FBECDBF89AF81E0C7
:1019C00062E040E00E94860781E063E040E00E9420
:1019D000860781E064E040E00E94860789AD982F89
:1019E000991F9927991F80E067E0492F0E94860779
:1019F00089AD8295869586958370982F917080E049
:101A000066E0492F0E94860789AD8295869587708A
:101A1000982F917080E065E0492F0E94860789AD7C
:101A200082958F70982F917080E064E0492F0E941A
:101A3000860781E064E041E00E94860780E090E054
:101A4000A0E4B0E48DAB9EABAFABB8AF6DA97EA9FF
:101A50008FA998AD20E030E04AE755E40E941F02CC
:101A6000DC01CB0189AB9AABABABBCAB69A97AA962
:101A70008BA99CA920E030E040E85FE30E942504A8
:101A800088232CF481E090E098AB8FA73FC069A930
:101A90007AA98BA99CA920E03FEF4FE757E40E9469
:101AA000C50318164CF56DA97EA98FA998AD20E045
:101AB00030E040E251E40E941F02DC01CB01BC0196
:101AC000CD010E944900DC01CB0198AB8FA70FC06C
:101AD00080E991E09EA78DA78DA59EA50197F1F7BE
:101AE0009EA78DA78FA598A9019798AB8FA78FA5C3
:101AF00098A9009769F714C069A97AA98BA99CA92C
:101B00000E944900DC01CB0198AB8FA78FA598A953
:101B10009CA78BA78BA59CA50197F1F79CA78BA7EA
:101B200081E064E040E00E94860780E090E0A0E46D
:101B3000B0E48FA398A7A9A7BAA76FA178A589A594
:101B40009AA520E030E04AE755E40E941F02DC013C
:101B5000CB018BA39CA3ADA3BEA36BA17CA18DA144
:101B60009EA120E030E040E85FE30E942504882346
:101B70002CF481E090E09AA389A33FC06BA17CA1E3
:101B80008DA19EA120E03FEF4FE757E40E94C503DF
:101B900018164CF56FA178A589A59AA520E030E02C
:101BA00040E251E40E941F02DC01CB01BC01CD01E7
:101BB0000E944900DC01CB019AA389A30FC080E9F0
:101BC00091E098A38F8F8F8D98A10197F1F798A33B
:101BD0008F8F89A19AA101979AA389A389A19AA11C
:101BE000009769F714C06BA17CA18DA19EA10E94F2
:101BF0004900DC01CB019AA389A389A19AA19E8FF8
:101C00008D8F8D8D9E8D0197F1F79E8F8D8F89AD74
:101C1000869586958695982F917080E067E0492F8C
:101C20000E94860789AD86958695982F917080E0F1
:101C300066E0492F0E94860789AD8695982F91709E
:101C400080E065E0492F0E94860789AD982F91704A
:101C500080E064E0492F0E94860781E064E041E073
:101C60000E94860780E090E0A0E4B0E4898F9A8F1C
:101C7000AB8FBC8F698D7A8D8B8D9C8D20E030E091
:101C80004AE755E40E941F02DC01CB018D8B9E8B3D
:101C9000AF8BB88F6D897E898F89988D20E030E079
:101CA00040E85FE30E94250488232CF481E090E063
:101CB0009C8B8B8B3FC06D897E898F89988D20E0AE
:101CC0003FEF4FE757E40E94C50318164CF5698DA6
:101CD0007A8D8B8D9C8D20E030E040E251E40E94B3
:101CE0001F02DC01CB01BC01CD010E944900DC01D7
:101CF000CB019C8B8B8B0FC080E991E09A8B898BF9
:101D000089899A890197F1F79A8B898B8B899C89AC
:101D100001979C8B8B8B8B899C89009769F714C0EA
:101D20006D897E898F89988D0E944900DC01CB01E5
:101D30009C8B8B8B8B899C89988B8F878F859889BF
:101D40000197F1F7988B8F8781E064E040E00E9473
:101D5000860780E090E0A0E4B0E48B879C87AD87A5
:101D6000BE876B857C858D859E8520E030E04AE7C7
:101D700055E40E941F02DC01CB018F839887A9875D
:101D8000BA876F81788589859A8520E030E040E8C0
:101D90005FE30E94250488232CF481E090E09E8379
:101DA0008D833FC06F81788589859A8520E03FEFDC
:101DB0004FE757E40E94C50318164CF56B857C85E8
:101DC0008D859E8520E030E040E251E40E941F02B4
:101DD000DC01CB01BC01CD010E944900DC01CB013B
:101DE0009E838D830FC080E991E09C838B838B81E0
:101DF0009C810197F1F79C838B838D819E81019754
:101E00009E838D838D819E81009769F714C06F81B9
:101E1000788589859A850E944900DC01CB019E83E3
:101E20008D838D819E819A83898389819A8101978F
:101E3000F1F79A838983E9960FB6F894DEBF0FBE57
:101E4000CDBFCF91DF910895DF93CF93CDB7DEB7AC
:101E5000E9970FB6F894DEBF0FBECDBF89AF81E022
:101E600062E041E00E94860781E063E040E00E947A
:101E7000860781E064E040E00E94860789AD982FE4
:101E8000991F9927991F80E067E0492F0E948607D4
:101E900089AD8295869586958370982F917080E0A4
:101EA00066E0492F0E94860789AD829586958770E6
:101EB000982F917080E065E0492F0E94860789ADD8
:101EC00082958F70982F917080E064E0492F0E9476
:101ED000860781E064E041E00E94860780E090E0B0
:101EE000A0E4B0E48DAB9EABAFABB8AF6DA97EA95B
:101EF0008FA998AD20E030E04AE755E40E941F0228
:101F0000DC01CB0189AB9AABABABBCAB69A97AA9BD
:101F10008BA99CA920E030E040E85FE30E94250403
:101F200088232CF481E090E098AB8FA73FC069A98B
:101F30007AA98BA99CA920E03FEF4FE757E40E94C4
:101F4000C50318164CF56DA97EA98FA998AD20E0A0
:101F500030E040E251E40E941F02DC01CB01BC01F1
:101F6000CD010E944900DC01CB0198AB8FA70FC0C7
:101F700080E991E09EA78DA78DA59EA50197F1F719
:101F80009EA78DA78FA598A9019798AB8FA78FA51E
:101F900098A9009769F714C069A97AA98BA99CA987
:101FA0000E944900DC01CB0198AB8FA78FA598A9AF
:101FB0009CA78BA78BA59CA50197F1F79CA78BA746
:101FC00081E064E040E00E94860780E090E0A0E4C9
:101FD000B0E48FA398A7A9A7BAA76FA178A589A5F0
:101FE0009AA520E030E04AE755E40E941F02DC0198
:101FF000CB018BA39CA3ADA3BEA36BA17CA18DA1A0
:102000009EA120E030E040E85FE30E9425048823A1
:102010002CF481E090E09AA389A33FC06BA17CA13E
:102020008DA19EA120E03FEF4FE757E40E94C5033A
:1020300018164CF56FA178A589A59AA520E030E087
:1020400040E251E40E941F02DC01CB01BC01CD0142
:102050000E944900DC01CB019AA389A30FC080E94B
:1020600091E098A38F8F8F8D98A10197F1F798A396
:102070008F8F89A19AA101979AA389A389A19AA177
:10208000009769F714C06BA17CA18DA19EA10E944D
:102090004900DC01CB019AA389A389A19AA19E8F53
:1020A0008D8F8D8D9E8D0197F1F79E8F8D8F89ADD0
:1020B000869586958695982F917080E067E0492FE8
:1020C0000E94860789AD86958695982F917080E04D
:1020D00066E0492F0E94860789AD8695982F9170FA
:1020E00080E065E0492F0E94860789AD982F9170A6
:1020F00080E064E0492F0E94860781E064E041E0CF
:102100000E94860780E090E0A0E4B0E4898F9A8F77
:10211000AB8FBC8F698D7A8D8B8D9C8D20E030E0EC
:102120004AE755E40E941F02DC01CB018D8B9E8B98
:10213000AF8BB88F6D897E898F89988D20E030E0D4
:1021400040E85FE30E94250488232CF481E090E0BE
:102150009C8B8B8B3FC06D897E898F89988D20E009
:102160003FEF4FE757E40E94C50318164CF5698D01
:102170007A8D8B8D9C8D20E030E040E251E40E940E
:102180001F02DC01CB01BC01CD010E944900DC0132
:10219000CB019C8B8B8B0FC080E991E09A8B898B54
:1021A00089899A890197F1F79A8B898B8B899C8908
:1021B00001979C8B8B8B8B899C89009769F714C046
:1021C0006D897E898F89988D0E944900DC01CB0141
:1021D0009C8B8B8B8B899C89988B8F878F8598891B
:1021E0000197F1F7988B8F8781E064E040E00E94CF
:1021F000860780E090E0A0E4B0E48B879C87AD8701
:10220000BE876B857C858D859E8520E030E04AE722
:1022100055E40E941F02DC01CB018F839887A987B8
:10222000BA876F81788589859A8520E030E040E81B
:102230005FE30E94250488232CF481E090E09E83D4
:102240008D833FC06F81788589859A8520E03FEF37
:102250004FE757E40E94C50318164CF56B857C8543
:102260008D859E8520E030E040E251E40E941F020F
:10227000DC01CB01BC01CD010E944900DC01CB0196
:102280009E838D830FC080E991E09C838B838B813B
:102290009C810197F1F79C838B838D819E810197AF
:1022A0009E838D838D819E81009769F714C06F8115
:1022B000788589859A850E944900DC01CB019E833F
:1022C0008D838D819E819A83898389819A810197EB
:1022D000F1F79A838983E9960FB6F894DEBF0FBEB3
:1022E000CDBFCF91DF910895DF93CF9300D000D081
:1022F000CDB7DEB79B838A836C83198219820EC0A7
:102300008981282F30E08A819B81FC01E20FF31F35
:1023100080810E94240F89818F5F898399818C81BC
:10232000981770F30F900F900F900F90CF91DF914F
:102330000895DF93CF9300D0CDB7DEB789836A834A
:102340008981882F90E002960024969587950794BE
:10235000969587950794982F802D982F8A81890FBD
:102360000E94D40C0F900F90CF91DF910895DF93CE
:10237000CF93CDB7DEB7A3E5B0E0E3E5F0E0808131
:102380008F7B8C93A3E5B0E0E3E5F0E08081877F6D
:102390008C93A3E5B0E0E3E5F0E080818F7E8C9341
:1023A000A3E5B0E0E3E5F0E080818F7D8C93A3E5C9
:1023B000B0E0E3E5F0E0808181608C93A3E5B0E0DC
:1023C000E3E5F0E080818D7F8C93A3E5B0E0E3E569
:1023D000F0E0808184608C93CF91DF910895DF934A
:1023E000CF93CDB7DEB7A9E5B0E0E9E5F0E08081B5
:1023F00081608C93CF91DF910895DF93CF93CDB718
:10240000DEB7A9E5B0E0E9E5F0E080818E7F8C934E
:10241000CF91DF910895DF93CF930F92CDB7DEB7C1
:102420008983E2E5F0E0898180830F90CF91DF918D
:102430000895DF93CF9300D0CDB7DEB79A83898319
:1024400089819A8190938500809384000F900F90EA
:10245000CF91DF9108951F920F920FB60F92112422
:102460002F933F934F935F936F937F938F939F939C
:10247000AF93BF93EF93FF93DF93CF93CDB7DEB7C7
:10248000E0918400F09185000995CF91DF91FF9153
:10249000EF91BF91AF919F918F917F916F915F91DC
:1024A0004F913F912F910F900FBE0F901F90189555
:1024B000DF93CF93CDB7DEB7AEE4B0E0EEE4F0E06B
:1024C0008081877F8C93AEE4B0E0EEE4F0E0808121
:1024D0008F7E8C93AFE4B0E0EFE4F0E080818E7FFC
:1024E0008C93AFE4B0E0EFE4F0E080818D7F8C93DB
:1024F000AFE4B0E0EFE4F0E080818F7B8C93AFE459
:10250000B0E0EFE4F0E080818F778C93AFE4B0E04F
:10251000EFE4F0E080818F7E8C93AFE4B0E0EFE4F5
:10252000F0E080818F778C93AEE4B0E0EEE4F0E0F1
:10253000808182608C93AEE4B0E0EEE4F0E08081D4
:1025400081608C93AEE4B0E0EEE4F0E080818460E2
:102550008C93CF91DF910895DF93CF93CDB7DEB702
:10256000A9E5B0E0E9E5F0E0808184608C93CF914B
:10257000DF910895DF93CF93CDB7DEB7A9E5B0E043
:10258000E9E5F0E080818B7F8C93CF91DF91089516
:10259000DF93CF9300D0CDB7DEB79A83898389814B
:1025A0009A8190938B0080938A000F900F90CF9127
:1025B000DF910895DF93CF9300D0CDB7DEB79A8334
:1025C0008983ECE4F0E089819A81918380830F9084
:1025D0000F90CF91DF910895DF93CF93CDB7DEB702
:1025E000ECE4F0E080819181CF91DF9108951F921A
:1025F0000F920FB60F9211242F933F934F935F9337
:102600006F937F938F939F93AF93BF93EF93FF93BA
:10261000DF93CF93CDB7DEB7E0918A00F0918B00C6
:102620000995CF91DF91FF91EF91BF91AF919F916C
:102630008F917F916F915F914F913F912F910F906B
:102640000FBE0F901F901895DF93CF93CDB7DEB7D5
:10265000A6970FB6F894DEBF0FBECDBF0E949609B5
:1026600081E00E94D40C0E94B7110E9458128AE4A3
:1026700095E10E94191284E695E10E94C8120E9419
:10268000EF110E94AC120E947A0983E060E040E002
:102690000E94900683E060E041E00E94860780E6A9
:1026A00090E069E00E94741180E090E0A8ECB2E450
:1026B0008BA39CA3ADA3BEA36BA17CA18DA19EA166
:1026C0002DEC3CEC4CE255E40E941F02DC01CB01F6
:1026D0008F8F98A3A9A3BAA36F8D78A189A19AA17E
:1026E00020E030E040E85FE30E94250488232CF4DA
:1026F00081E090E09E8F8D8F3FC06F8D78A189A182
:102700009AA120E03FEF4FE757E40E94C503181657
:102710004CF56BA17CA18DA19EA120E030E040E2B0
:1027200051E40E941F02DC01CB01BC01CD010E94DB
:102730004900DC01CB019E8F8D8F0FC084E191E0B9
:102740009C8F8B8F8B8D9C8D0197F1F79C8F8B8F3E
:102750008D8D9E8D01979E8F8D8F8D8D9E8D009777
:1027600069F714C06F8D78A189A19AA10E944900D0
:10277000DC01CB019E8F8D8F8D8D9E8D9A8F898FE1
:10278000898D9A8D0197F1F79A8F898F10928E001B
:1027900010928F001092900010929100109292006F
:1027A00010929300109294001092950080E00E9485
:1027B0000B1280E090E00E94DA1201C000008091CC
:1027C000920090919300A0919400B09195008C3369
:1027D0009105A105B10590F380E090E0A1E6B5E494
:1027E0008D8B9E8BAF8BB88F6D897E898F89988DED
:1027F0002AEF3DEE4BE650E40E941F02DC01CB01C4
:10280000898B9A8BAB8BBC8B69897A898B899C89E4
:1028100020E030E040E85FE30E94250488231CF4B8
:1028200081E0888B91C069897A898B899C8920E0B5
:1028300030E04FE753E40E94C50318160CF07BC04C
:102840006D897E898F89988D20E030E04AE754E4D5
:102850000E941903DC01CB018C879D87AE87BF875F
:102860006C857D858E859F852DEC3CEC4CE255E496
:102870000E941F02DC01CB0188879987AA87BB874A
:10288000688579858A859B8520E030E040E85FE3B4
:102890000E94250488232CF481E090E09F838E839E
:1028A0003FC0688579858A859B8520E03FEF4FE7AB
:1028B00057E40E94C50318164CF56C857D858E85FE
:1028C0009F8520E030E040E251E40E941F02DC01DD
:1028D000CB01BC01CD010E944900DC01CB019F83EB
:1028E0008E830FC084E191E09D838C838C819D81D8
:1028F0000197F1F79D838C838E819F8101979F8340
:102900008E838E819F81009769F724C068857985C1
:102910008A859B850E944900DC01CB019F838E83C1
:102920008E819F819B838A838A819B810197F1F7A6
:102930009B838A830FC069897A898B899C890E94CD
:102940004900DC01CB01888B8889898389818A953C
:10295000F1F7898381E00E94D40C0E94FD110E944E
:10296000BA1280918E0090918F00A0919000B0914A
:102970009100DC019927882780939A0090939B000F
:10298000A0939C00B0939D000E94EC129C0140E03B
:1029900050E080919A0090919B00A0919C00B09192
:1029A0009D00820F931FA41FB51F80939E009093DC
:1029B0009F00A093A000B093A10080919E009091F1
:1029C0009F00A091A000B091A100803422E4920762
:1029D0002FE0A20720E0B20768F080919E0090915E
:1029E0009F00A091A000B091A100BC01CD010E9468
:1029F000661639C080919E0090919F00A091A00022
:102A0000B091A100883E23E0920720E0A20720E0D9
:102A1000B20768F080919E0090919F00A091A00065
:102A2000B091A100BC01CD010E940B171CC0809188
:102A30009E0090919F00A091A000B091A100883EBF
:102A400023E0920720E0A20720E0B20760F4809123
:102A50009E0090919F00A091A000B091A100BC01A8
:102A6000CD010E94C11783E060E00E947C088823AA
:102A700061F480919E0090919F00A091A000B09180
:102A8000A100BC01CD010E947E150E94EF110E94A1
:102A9000AC127CCEDF93CF93CDB7DEB7809192009E
:102AA00090919300A0919400B09195000196A11D82
:102AB000B11D8093920090939300A0939400B093E3
:102AC0009500CF91DF910895DF93CF93CDB7DEB717
:102AD00080918E0090918F00A0919000B091910014
:102AE0000196A11DB11D80938E0090938F00A0933D
:102AF0009000B0939100CF91DF910895DF93CF9331
:102B000000D000D0CDB7DEB769837A838B839C83F6
:102B100081E061E00E94991189819A81AB81BC8139
:102B200020E031EE45EF55E0BC01CD010E942318B5
:102B3000DC01CB0120E836E948E950E0BC01CD01D9
:102B40000E942318DA01C901805D0E94240F898147
:102B50009A81AB81BC8120E836E948E950E0BC01AC
:102B6000CD010E942318DC01CB0120E432E44FE0C8
:102B700050E0BC01CD010E942318DA01C901805D3B
:102B80000E94240F89819A81AB81BC8120E432E4C8
:102B90004FE050E0BC01CD010E942318DC01CB01C5
:102BA00020EA36E841E050E0BC01CD010E94231844
:102BB000DA01C901805D0E94240F89819A81AB816D
:102BC000BC8120EA36E841E050E0BC01CD010E9422
:102BD0002318DC01CB0120E137E240E050E0BC01EA
:102BE000CD010E942318DA01C901805D0E94240FE3
:102BF00089819A81AB81BC8120E137E240E050E0DD
:102C0000BC01CD010E942318DC01CB0128EE33E08A
:102C100040E050E0BC01CD010E942318DA01C90157
:102C2000805D0E94240F89819A81AB81BC8128EE4E
:102C300033E040E050E0BC01CD010E942318DC01EC
:102C4000CB0124E630E040E050E0BC01CD010E9421
:102C50002318DA01C901805D0E94240F89819A81BD
:102C6000AB81BC8124E630E040E050E0BC01CD0106
:102C70000E942318DC01CB012AE030E040E050E064
:102C8000BC01CD010E942318DA01C901805D0E94B8
:102C9000240F89819A81AB81BC812AE030E040E039
:102CA00050E0BC01CD010E942318DC01CB01805D06
:102CB0000E94240F89E690E062E00E9474110F9058
:102CC0000F900F900F90CF91DF910895DF93CF93E6
:102CD00000D000D0CDB7DEB769837A838B839C8325
:102CE0008CE690E066E00E94741189819A81AB8144
:102CF000BC8120E031EE45EF55E0BC01CD010E94E2
:102D00002318DC01CB0120E836E948E950E0BC019A
:102D1000CD010E942318DA01C901805D0E94240FB1
:102D200089819A81AB81BC8120E836E948E950E08D
:102D3000BC01CD010E942318DC01CB0120E432E468
:102D40004FE050E0BC01CD010E942318DA01C90117
:102D5000805D0E94240F8EE20E94240F89819A8157
:102D6000AB81BC8120E432E44FE050E0BC01CD01F6
:102D70000E942318DC01CB0120EA36E841E050E054
:102D8000BC01CD010E942318DA01C901805D0E94B7
:102D9000240F89819A81AB81BC8120EA36E841E029
:102DA00050E0BC01CD010E942318DC01CB0120E1E1
:102DB00037E240E050E0BC01CD010E942318DA0167
:102DC000C901805D0E94240F89819A81AB81BC81F9
:102DD00020E137E240E050E0BC01CD010E94231821
:102DE000DC01CB0128EE33E040E050E0BC01CD0136
:102DF0000E942318DA01C901805D0E94240F83E735
:102E000090E063E00E9474110F900F900F900F906C
:102E1000CF91DF910895DF93CF9300D000D0CDB74D
:102E2000DEB769837A838B839C838CE690E066E0CF
:102E30000E94741189819A81AB81BC8120E432E4C3
:102E40004FE050E0BC01CD010E942318DC01CB0112
:102E500020EA36E841E050E0BC01CD010E94231891
:102E6000DA01C901805D0E94240F89819A81AB81BA
:102E7000BC8120EA36E841E050E0BC01CD010E946F
:102E80002318DC01CB0120E137E240E050E0BC0137
:102E9000CD010E942318DA01C901805D0E94240F30
:102EA00089819A81AB81BC8120E137E240E050E02A
:102EB000BC01CD010E942318DC01CB0128EE33E0D8
:102EC00040E050E0BC01CD010E942318DA01C901A5
:102ED000805D0E94240F8EE20E94240F89819A81D6
:102EE000AB81BC8128EE33E040E050E0BC01CD0175
:102EF0000E942318DC01CB0124E630E040E050E0E2
:102F0000BC01CD010E942318DA01C901805D0E9435
:102F1000240F89819A81AB81BC8124E630E040E0B6
:102F200050E0BC01CD010E942318DC01CB012AE056
:102F300030E040E050E0BC01CD010E942318DA01EE
:102F4000C901805D0E94240F89819A81AB81BC8177
:102F50002AE030E040E050E0BC01CD010E9423189F
:102F6000DC01CB01805D0E94240F87E790E063E0E5
:102F70000E9474110F900F900F900F90CF91DF91DE
:102F80000895DF93CF9300D000D0CDB7DEB769832B
:102F90007A838B839C838CE690E066E00E947411B8
:102FA00089819A81AB81BC8128EE33E040E050E01A
:102FB000BC01CD010E942318DC01CB0124E630E0E6
:102FC00040E050E0BC01CD010E942318DA01C901A4
:102FD000805D0E94240F89819A81AB81BC8124E6A7
:102FE00030E040E050E0BC01CD010E942318DC013C
:102FF000CB012AE030E040E050E0BC01CD010E946E
:103000002318DA01C901805D0E94240F89819A8109
:10301000AB81BC812AE030E040E050E0BC01CD0152
:103020000E942318DC01CB01805D0E94240F89E6F9
:1030300090E062E00E9474110F900F900F900F903B
:10304000CF91DF910895A1E21A2EAA1BBB1BFD01AF
:103050000DC0AA1FBB1FEE1FFF1FA217B307E40777
:10306000F50720F0A21BB30BE40BF50B661F771FCF
:10307000881F991F1A9469F76095709580959095AF
:103080009B01AC01BD01CF0108952F923F924F9259
:103090005F926F927F928F929F92AF92BF92CF92E8
:1030A000DF92EF92FF920F931F93CF93DF93CDB7F1
:1030B000DEB7CA1BDB0B0FB6F894DEBF0FBECDBF69
:1030C00009942A88398848885F846E847D848C843A
:1030D0009B84AA84B984C884DF80EE80FD800C8143
:1030E0001B81AA81B981CE0FD11D0FB6F894DEBF26
:0C30F0000FBECDBFED010895F894FFCF96
:1030FC005374617274203C3300487A0046726571D7
:10310C00203D004D487A004B487A0000000000003A
:04311C0000000000AF
:00000001FF
